:0400000007EF00F016
:0A000800238213ED07F0A2EF08F0C9
:100800000054656D70657261747572613A00556C63
:1008100074696D612074656D703A00496E69636931
:0F082000616E646F0048756D656461643A000035
:100830000CC003F00DC004F0000E066E0A0E056E2B
:10084000E1EC08F00E500324126E0F500420136EDA
:1008500021C016F0176A000E156E430E146E29ECB7
:1008600009F03ED021C016F0176A000E156E430E37
:1008700035D0110E2124166E176A010E1722000EB4
:10088000156E4B0E2BD02150090DF3CF03F0F4CF92
:1008900004F0000E066E050E056E58EC07F0EC0E27
:1008A0000324166E010E0420176E000E156E520EF4
:1008B00015D02150090DF3CF03F0F4CF04F0000E52
:1008C000066E050E056E58EC07F0200E0324166E1A
:1008D000000E0420176E000E156E460E146E15D015
:1008E00012C010F013C011F01150000AD8A40DD09E
:1008F0001050000AD8B4B6D7010AD8B4BAD70B0A38
:10090000D8B4C1D7010AD8B4D4D7540E4BEC09F0EF
:10091000650E4BEC09F06D0E4BEC09F0700E4BECD4
:1009200009F03A0E4BEC09F0200E4BEC09F0010EE9
:10093000086EF6EC07F016C003F017C004F0000EC6
:10094000066E640E056ECDEC07F003500410D8B4AB
:100950002AD016C003F017C004F0000E066E640E15
:10096000056ECDEC07F00350300F4BEC09F016C0CC
:1009700003F017C004F0000E066E640E056ECDEC99
:1009800007F00350300F13EC09F016C003F017C046
:1009900004F0000E066E640E056E64EC08F003C0F1
:1009A00016F004C017F016C003F017C004F0000ED4
:1009B000066E0A0E056ECDEC07F00350300F4BECBF
:1009C00009F016C003F017C004F0000E066E0A0E00
:1009D000056E64EC08F00350300F4BEC09F0A70EE5
:1009E0004BEC09F014504BEC09F0200E4BEC09F0E5
:1009F0000A0E4BEC09F0480E4BEC09F0750E4BEC6F
:100A000009F06D0E4BEC09F03A0E4BEC09F0200E9C
:100A10004BEC09F00A0E036E205085EC08F0300F05
:100A20004BEC09F00A0E036E2050B8EC08F0300FC2
:100A30004BEC09F0200E4BEC09F0250E4BEC09F0C5
:100A40000A0E4BEC09F0200E4BEC09F016C003F037
:100A500017C004F0000E066E0A0E056ECDEC07F00E
:100A60000350300F13EC09F016C003F017C004F068
:100A7000000E066E0A0E056E64EC08F00350300F8F
:100A800013EC09F0145013EC09F0C00E1EEC09F041
:100A9000250E086EF6EC07F00A0E036E205085EC6A
:100AA00008F0300F13EC09F00A0E036E2050B8EC7A
:100AB00008F0300F13EC09F0250E13EC09F01200CA
:100AC000700ED36E1A0E186EF80EE82EFED7182E82
:100AD000FCD700D0200EAC6E900EAB6E000EB86E40
:100AE0000C0EAF6E010EC26E0D0EC16E880EC06E82
:100AF000000E936E000E956E010E926E6D966F86CF
:100B0000F60E946EF19E8B94000E046E000E036E32
:100B10003DEC09F01E6E040E07EC09F0C5EC06F082
:100B2000830ED56EF2940B0ED76EDC0ED66EF28A63
:100B3000F28ED58E29EC09F01E28D8B428D00E0EDE
:100B4000086EF6EC07F0C00E1EEC09F00A0E036EFC
:100B50001E5085EC08F0300F13EC09F00A0E036EFE
:100B60001E50B8EC08F0300F13EC09F0430E13ECF4
:100B700009F0150E196E4B0E186EBE0EE82EFED73C
:100B8000182EFCD7192EFAD700D029EC09F01B0E2D
:100B9000086EF6EC07F0060E196E130E186EAE0E08
:100BA000E82EFED7182EFCD7192EFAD72E0E13ECEE
:100BB00009F0060E196E130E186EAE0EE82EFED753
:100BC000182EFCD7192EFAD72E0E13EC09F0060EAC
:100BD000196E130E186EAE0EE82EFED7182EFCD727
:100BE000192EFAD72E0E13EC09F0060E196E130EFD
:100BF000186EAE0EE82EFED7182EFCD7192EFAD797
:100C000029EC09F0060E196E130E186EAE0EE82EC2
:100C1000FED7182EFCD7192EFAD7060E196E130E12
:100C2000186EAE0EE82EFED7182EFCD7192EFAD766
:100C300042EC08F0000E046E000E036E21C005F0B9
:100C4000F4EC08F021C003F0046A51EC06F082B223
:100C500011D082A802D0010E01D0000E0C6E0D6AD8
:100C600082AA02D0010E01D0000E0E6E0F6A18EC9F
:100C700004F00AD01CC00CF01DC00DF01AC00EF01C
:100C80001BC00FF018EC04F0000E33EC09F0000E5E
:100C9000C35C020EC458D8A002D08180B3D7819023
:100CA000B1D7045008E1160E035CD8B004D0819E81
:100CB000819C819A1200045004E1160E035CD8A0B6
:100CC0000AD0045008E1190E035CD8B004D0818E1C
:100CD000819C818A1200045004E1190E035CD8A0A3
:100CE0000AD0045008E11C0E035CD8B004D0819EE9
:100CF000819C818A1200045004E11C0E035CD8A080
:100D00000AD0045008E11F0E035CD8B004D0819EC5
:100D1000818C818A1200045004E11F0E035CD8A06C
:100D20000AD0045008E1220E035CD8B004D0819EA2
:100D3000818C819A1200045004E1220E035CD8A039
:100D40000AD0045008E1250E035CD8B004D0818E8F
:100D5000818C819A1200045004E1250E035CD8A016
:100D60000AD0045008E1280E035CD8B004D0818E6C
:100D7000819C819A1200045004E1280E035CD8A0E3
:100D80001200818E818C818A12008D90040E2218AF
:100D9000D8A404D08C500F0B300901D03F0E8C6EBC
:100DA00044EC09F0010E9AEC07F0040E2218D8A4C6
:100DB00004D08C500F0B300901D03F0E8C6E44ECE8
:100DC00009F0030E9AEC07F0040E2218D8A404D000
:100DD0008C500F0B300901D03F0E8C6E44EC09F0A3
:100DE000040E9AEC07F0040E2218D8A411D08C50EF
:100DF0000F0B20098C6E44EC09F0040E9AEC07F0FE
:100E00002F0E1FEC08F044EC09F0040E9AEC07F0EA
:100E100029EC09F00F0E1FEC08F044EC09F0040E69
:100E20009AEC07F012000600F2A40AD0F29482B005
:100E300002D0828001D082900B0ED76EDC0ED66E6F
:100E40009EBA1AD033D0000E1D6E000E1C6E000E1E
:100E50001B6E000E0FD0000E1D6E000E07D0000E90
:100E60001D6E010EF3D7000E1D6E010E1C6E000EDE
:100E70001B6E010E1A6E0ED051EC09F0430AD8B465
:100E8000E2D7050AD8B4EFD70D0AD8B4E4D7190AC7
:100E9000D8B4E5D7020E026E040E016EBA0EE82E2B
:100EA000FED7012EFCD7022EFAD700D023921100D4
:100EB000000E086E06AE06D0056C061ED8B0062AD7
:100EC000010E086E04AE06D0036C041ED8B0042ACE
:100ED000010E081A000E0A6E000E096E055006106B
:100EE000D8B41CD0010E076E04D0D8900536063653
:100EF000072A06AEFAD7D89009360A360550035CA1
:100F000006500458D8A005D00550035E0650045A78
:100F10000980D89006320532072EEDD70850D8B494
:100F200004D0096C0A1ED8B00A2A09C003F00AC00E
:100F300004F01200046E23D0620E036E660EE82EDB
:100F4000FED7032EFCD71200070E036E7D0EE82E8F
:100F5000FED7032EFCD700F0050E036E260EE82EFA
:100F6000FED7032EFCD700D01200A60EE82EFED727
:100F700000D01200420EE82EFED700D0120004501E
:100F8000010AD8B4D9D7030AD8B4DED7010AD8B435
:100F9000ECD7070AD8A41200EDD7000E086E000E99
:100FA000076E05500610D8B41CD0010E096E04D08F
:100FB000D89005360636092A06AEFAD7D8900736F5
:100FC00008360550035C06500458D8A005D00550DB
:100FD000035E0650045A0780D89006320532092E67
:100FE000EDD707C003F008C004F01200000E0B6E2E
:100FF000000E0A6E19D008500A24096E09C0F6FFC7
:10100000080EF76E0800F5500009D8B41200085019
:101010000A24096E09C0F6FF080EF76E0800F550A5
:1010200013EC09F00A4A0B2A08C003F0CDEC08F0D3
:1010300003500A5C04500B58D8B01200DCD7066E7F
:10104000040E2218D8A417D006C005F0F00E05161D
:101050008C500F0B05108C6E44EC09F0010E9AECCD
:1010600007F006C005F0053AF00E05168C500F0B80
:1010700005108C6E1200080E2218D8A4120006C0AB
:101080008CFF1200000E046E94942F0E036EC00E9F
:10109000E82EFED7032EFCD7948482B4FED71A0E16
:1010A000E82EFED700D082A4042A350EE82EFED703
:1010B00000F082B4042A82B4FED7000E206E2A0EFD
:1010C000216E000E1F6E120005500610D8B418D005
:1010D000010E076E04D0D89005360636072A06AEF4
:1010E000FAD70550035C06500458D8A004D0055028
:1010F000035E0650045AD89006320532072EF1D707
:1011000003C003F004C004F01200046E000E066E6B
:101110000350D8B415D0010E056E03D0D890033615
:10112000052A03AEFBD7D89006360350045CD8A03E
:1011300003D00350045E0680D8900332052EF3D707
:1011400006501200AA0EF66E120EF76E000EF86E22
:101150000900F5CF22F000EE1AF0080EEE6AE8065C
:10116000FDE123902392000EF86E000160EF05F080
:10117000046E080E056E000E066ED8900434063418
:10118000066ED89004360350065CD8A002D00350F7
:10119000065E052EF2D70650120003C005F001D0FE
:1011A000052A05C0F6FF080EF76E0800F550000985
:1011B000D8A4F6D70350055C036E046A03BE040688
:1011C000120003500502F3CF07F0F4CF08F00350EC
:1011D0000602F350082604500502F350082607C003
:1011E00003F008C004F0120003C0A9FF05C0A8FF67
:1011F000A69EA69CA684F29E550EA76EAA0EA76E6A
:10120000A682F28EA1A8FED7A198A6941200036E22
:10121000040E0318D8B404D0080E0318D8A4120082
:1012200003C022F01200076E8D8007501FEC08F0FB
:1012300044EC09F0040E9AEC07F01200076E8D9052
:1012400007501FEC08F044EC09F0040E9AEC07F08C
:1012500012008D90010E1FEC08F044EC09F0020E14
:101260009AEC07F01200036E0344E846FC0B0109F8
:10127000C26EC282C2A21200FDD703C0A9FFA69E01
:10128000A69CA680A85012008D82420EE82EFED7A2
:1012900000D08D921200036EACA2FED703C0ADFF4A
:0B12A00012009EAAFED7AE50120008FC
:020000040020DA
:08000000FFFFFFFFFFFFFFFF00
:020000040030CA
:0E00000000091F1EFF8181FF0FC00FE00F409F
:00000001FF
