:0400000007EF00F016
:0A000800218265ED07F007EF09F013
:1008000000556C74696D612074656D703A00496EB5
:10081000696369616E646F0054656D703A00487574
:100820006D3A00000BC003F00CC004F0000E066E21
:100830000A0E056E46EC09F00D500324116E0E50A1
:100840000420126E1FC015F0166A000E146E430EBF
:10085000136E3ED01FC015F0166A000E146E430EC4
:1008600035D0110E1F24156E166A010E1622000EC9
:10087000146E4B0E2BD01F50090DF3CF03F0F4CFA5
:1008800004F0000E066E050E056EAAEC07F0EC0EE5
:100890000324156E010E0420166E000E146E520E07
:1008A00015D01F50090DF3CF03F0F4CF04F0000E64
:1008B000066E050E056EAAEC07F0200E0324156ED9
:1008C000000E0420166E000E146E460E136E15D028
:1008D00011C00FF012C010F01050000AD8A40DD0B3
:1008E0000F50000AD8B4B6D7010AD8B4BAD70B0A49
:1008F000D8B4C1D7010AD8B4D4D7540EC1EC09F08A
:10090000650EC1EC09F06D0EC1EC09F0700EC1EC82
:1009100009F03A0EC1EC09F0200EC1EC09F0850E89
:1009200089EC09F015C003F016C004F0000E066E45
:10093000640E056E1FEC08F003500410D8B42AD0E2
:1009400015C003F016C004F0000E066E640E056EAE
:100950001FEC08F00350300FC1EC09F015C003F094
:1009600016C004F0000E066E640E056E1FEC08F053
:100970000350300F94EC09F015C003F016C004F0DA
:10098000000E066E640E056E94EC08F003C015F0C0
:1009900004C016F015C003F016C004F0000E066E79
:1009A0000A0E056E1FEC08F00350300FC1EC09F081
:1009B00015C003F016C004F0000E066E0A0E056E98
:1009C00094EC08F00350300FC1EC09F0460E1318F8
:1009D0001410D8B405D0430E13181410D8A403D0A3
:1009E000DF0EC1EC09F01350C1EC09F0200EC1EC90
:1009F00009F00A0EC1EC09F0480EC1EC09F0750EC1
:100A0000C1EC09F06D0EC1EC09F03A0EC1EC09F031
:100A1000200EC1EC09F00A0E036E1E50B5EC08F072
:100A2000300FC1EC09F00A0E036E1E501DEC09F0E8
:100A3000300FC1EC09F0200EC1EC09F0250EC1EC1D
:100A400009F00A0EC1EC09F0200EC1EC09F015C046
:100A500003F016C004F0000E066E0A0E056E1FECC1
:100A600008F00350300F94EC09F015C003F016C0E5
:100A700004F0000E066E0A0E056E94EC08F00350AA
:100A8000300F94EC09F0460E13181410D8B405D0AA
:100A9000430E13181410D8A403D0DF0E94EC09F001
:100AA000135094EC09F0C40E89EC09F00A0E036EA1
:100AB0001E50B5EC08F0300F94EC09F00A0E036EEE
:100AC0001E501DEC09F0300F94EC09F0250E94EC4B
:100AD00009F01200040E7DEC09F0760ED36E030EC1
:100AE000176E980EE82EFED7172EFCD78B94200E8B
:100AF000AC6E900EAB6E000EB86E000E966E0C0EC5
:100B0000AF6E010EC26E0E0EC16E880EC06E0E0E5E
:100B1000936E000E956E9280D70E946E6D966F86D2
:100B2000F19E000E046E000E036EB3EC09F01D6E14
:100B300017EC07F0030ED56EF2940B0ED76EDC0E99
:100B4000D66EF28AF28ED58E9FEC09F01D28D8B4AD
:100B50002BD0010E086E48EC08F0C00E89EC09F0AD
:100B60000A0E036E1D50B5EC08F0300F94EC09F03E
:100B70000A0E036E1D501DEC09F0300F94EC09F0C5
:100B8000DF0E94EC09F0430E94EC09F0150E186E8C
:100B90004B0E176EBE0EE82EFED7172EFCD7182E62
:100BA000FAD700D09FEC09F00E0E086E48EC08F062
:100BB000060E186E130E176EAE0EE82EFED7172E09
:100BC000FCD7182EFAD72E0E94EC09F0060E186EEC
:100BD000130E176EAE0EE82EFED7172EFCD7182E6A
:100BE000FAD72E0E94EC09F0060E186E130E176E3F
:100BF000AE0EE82EFED7172EFCD7182EFAD72E0EE3
:100C000094EC09F0060E186E130E176EAE0EE82E59
:100C1000FED7172EFCD7182EFAD79FEC09F0060E38
:100C2000186E130E176EAE0EE82EFED7172EFCD7D9
:100C3000182EFAD7180E086E48EC08F0060E186E3B
:100C4000130E176EAE0EE82EFED7172EFCD7182EF9
:100C5000FAD7C00E89EC09F01E0E086E48EC08F0B9
:100C6000060E186E130E176EAE0EE82EFED7172E58
:100C7000FCD7182EFAD7060E186E130E176EAE0E8E
:100C8000E82EFED7172EFCD7182EFAD7D2EC08F094
:100C9000020E186E040E176EBA0EE82EFED7172E2F
:100CA000FCD7182EFAD700D0000E046E000E036E8B
:100CB0001FC005F059EC09F0020E186E040E176EF5
:100CC000BA0EE82EFED7172EFCD7182EFAD700D072
:100CD0001FC003F0046AA3EC06F0020E186E040EA7
:100CE000176EBA0EE82EFED7172EFCD7182EFAD79D
:100CF00000D082B811D081A202D0010E01D0000E26
:100D00000B6E0C6A81A402D0010E01D0000E0D6E94
:100D10000E6A12EC04F00AD01BC00BF01CC00CF0E1
:100D200019C00DF01AC00EF012EC04F0000EA9EC80
:100D300009F0000EC35C020EC458D8A002D0818016
:100D40008FD781908DD7045008E1160E035CD8B080
:100D500004D0819A819C819E1200045004E1160EF9
:100D6000035CD8A00AD0045008E1190E035CD8B087
:100D700004D0818A819C818E1200045004E1190EF6
:100D8000035CD8A00AD0045008E11C0E035CD8B064
:100D900004D0818A819C819E1200045004E11C0EC3
:100DA000035CD8A00AD0045008E11F0E035CD8B041
:100DB00004D0818A818C819E1200045004E11F0EB0
:100DC000035CD8A00AD0045008E1220E035CD8B01E
:100DD00004D0819A818C819E1200045004E1220E7D
:100DE000035CD8A00AD0045008E1250E035CD8B0FB
:100DF00004D0819A818C818E1200045004E1250E6A
:100E0000035CD8A00AD0045008E12A0E035CD8B0D5
:100E100004D0819A819C818E1200045004E12A0E34
:100E2000035CD8A01200818A818C818E12008D9083
:100E3000040E2018D8A404D08C500F0B300901D018
:100E40003F0E8C6EBAEC09F0010EECEC07F0040ECC
:100E50002018D8A404D08C500F0B300901D03F0EBD
:100E60008C6EBAEC09F0030EECEC07F0040E2018BF
:100E7000D8A404D08C500F0B300901D03F0E8C6EDB
:100E8000BAEC09F0040EECEC07F0040E2018D8A41C
:100E900011D08C500F0B20098C6EBAEC09F0040EA7
:100EA000ECEC07F02F0E71EC08F0BAEC09F0040E30
:100EB000ECEC07F09FEC09F00F0E71EC08F0BAECC7
:100EC00009F0040EECEC07F012000600F2A40AD0C0
:100ED000F29484B402D0848401D084940B0ED76E33
:100EE000DC0ED66E9EBA1AD033D0000E1C6E000EE9
:100EF0001B6E000E1A6E000E0FD0000E1C6E000E40
:100F000007D0000E1C6E010EF3D7000E1C6E010EF2
:100F10001B6E000E1A6E010E196E0ED0C7EC09F092
:100F2000430AD8B4E2D7050AD8B4EFD70D0AD8B42B
:100F3000E4D7190AD8B4E5D7020E026E040E016E8A
:100F4000BA0EE82EFED7012EFCD7022EFAD700D01B
:100F500021921100000E086E06AE06D0056C061E2A
:100F6000D8B0062A010E086E04AE06D0036C041E2B
:100F7000D8B0042A010E081A000E0A6E000E096E7F
:100F800005500610D8B41CD0010E076E04D0D890BE
:100F900005360636072A06AEFAD7D89009360A363D
:100FA0000550035C06500458D8A005D00550035ED8
:100FB0000650045A0980D89006320532072EEDD724
:100FC0000850D8B404D0096C0A1ED8B00A2A09C047
:100FD00003F00AC004F01200046E23D0620E036E08
:100FE000660EE82EFED7032EFCD71200070E036E06
:100FF0007D0EE82EFED7032EFCD700F0050E036E03
:10100000260EE82EFED7032EFCD700D01200A60E27
:10101000E82EFED700D01200420EE82EFED700D0F8
:1010200012000450010AD8B4D9D7030AD8B4DED7C5
:10103000010AD8B4ECD7070AD8A41200EDD7000EE5
:10104000086E000E076E05500610D8B41CD0010EB5
:10105000096E04D0D89005360636092A06AEFAD7AE
:10106000D890073608360550035C06500458D8A0BF
:1010700005D00550035E0650045A0780D89006320A
:101080000532092EEDD707C003F008C004F01200A6
:10109000000E0B6E000E0A6E19D008500A24096E5D
:1010A00009C0F6FF080EF76E0800F5500009D8B425
:1010B000120008500A24096E09C0F6FF080EF76EE8
:1010C0000800F55094EC09F00A4A0B2A08C003F016
:1010D00032EC09F003500A5C04500B58D8B01200EF
:1010E000DCD7066E040E2018D8A417D006C005F071
:1010F000F00E05168C500F0B05108C6EBAEC09F033
:10110000010EECEC07F006C005F0053AF00E0516EE
:101110008C500F0B05108C6E1200080E2018D8A4EE
:10112000120006C08CFF120005500610D8B418D06B
:10113000010E076E04D0D89005360636072A06AE93
:10114000FAD70550035C06500458D8A004D00550C7
:10115000035E0650045AD89006320532072EF1D7A6
:1011600003C003F004C004F01200046E000E066E0B
:101170000350D8B415D0010E056E03D0D8900336B5
:10118000052A03AEFBD7D89006360350045CD8A0DE
:1011900003D00350045E0680D8900332052EF3D7A7
:1011A0000650120094942F0E076EC00EE82EFED744
:1011B000072EFCD7948482B4FED7500EE82EFED7BB
:1011C00082B4FED76CEC09F01E6E6CEC09F06CEC8E
:1011D00009F01F6E6CEC09F06CEC09F01200000EC7
:1011E000036E82A4FED7080EE82EFED700D082A49C
:1011F00002D0000E036E0E0EE82EFED700D082A4A1
:1012000004D0010E036E82B4FED703501200960E76
:10121000F66E130EF76E000EF86E0900F5CF20F093
:1012200000EE19F0070EEE6AE806FDE1219021922A
:10123000000EF86E00016AEF05F0046E080E056EF0
:10124000000E066ED89004340634066ED89004362C
:101250000350065CD8A002D00350065E052EF2D7DC
:101260000650120003C005F001D0052A05C0F6FFA4
:10127000080EF76E0800F5500009D8A4F6D7035001
:10128000055C036E046A03BE0406120003500502E7
:10129000F3CF07F0F4CF08F003500602F35008260E
:1012A00004500502F350082607C003F008C004F0FC
:1012B000120003C0A9FF05C0A8FFA69EA69CA68495
:1012C000F29E550EA76EAA0EA76EA682F28EA1A858
:1012D000FED7A198A6941200000E056E080E066EA9
:1012E000EFEC08F0046E055005240410056E0606A8
:1012F0000650D8A4F5D705501200036E040E03184B
:10130000D8B404D0080E0318D8A4120003C020F0EB
:101310001200076E8D90075071EC08F0BAEC09F0DE
:10132000040EECEC07F01200076E8D80075071EC94
:1013300008F0BAEC09F0040EECEC07F012008D9006
:10134000010E71EC08F0BAEC09F0020EECEC07F0BB
:101350001200036E0344E846FC0B0109C26EC28210
:10136000C2A21200FDD703C0A9FFA69EA69CA6801C
:10137000A85012008D82420EE82EFED700D08D922A
:101380001200036EACA2FED703C0ADFF12009EAAEE
:07139000FED7AE5012000869
:020000040020DA
:08000000FFFFFFFFFFFFFFFF00
:020000040030CA
:0E00000000091F1EFF8181FF0FC00FE00F409F
:00000001FF
